{
  "contractName": "Enchant_Zeta",
  "abi": [
    {
      "inputs": [],
      "stateMutability": "nonpayable",
      "type": "constructor"
    },
    {
      "anonymous": false,
      "inputs": [
        {
          "indexed": true,
          "internalType": "address",
          "name": "account",
          "type": "address"
        },
        {
          "indexed": true,
          "internalType": "address",
          "name": "operator",
          "type": "address"
        },
        {
          "indexed": false,
          "internalType": "bool",
          "name": "approved",
          "type": "bool"
        }
      ],
      "name": "ApprovalForAll",
      "type": "event"
    },
    {
      "anonymous": false,
      "inputs": [
        {
          "indexed": true,
          "internalType": "address",
          "name": "previousOwner",
          "type": "address"
        },
        {
          "indexed": true,
          "internalType": "address",
          "name": "newOwner",
          "type": "address"
        }
      ],
      "name": "OwnershipTransferred",
      "type": "event"
    },
    {
      "anonymous": false,
      "inputs": [
        {
          "indexed": true,
          "internalType": "address",
          "name": "operator",
          "type": "address"
        },
        {
          "indexed": true,
          "internalType": "address",
          "name": "from",
          "type": "address"
        },
        {
          "indexed": true,
          "internalType": "address",
          "name": "to",
          "type": "address"
        },
        {
          "indexed": false,
          "internalType": "uint256[]",
          "name": "ids",
          "type": "uint256[]"
        },
        {
          "indexed": false,
          "internalType": "uint256[]",
          "name": "values",
          "type": "uint256[]"
        }
      ],
      "name": "TransferBatch",
      "type": "event"
    },
    {
      "anonymous": false,
      "inputs": [
        {
          "indexed": true,
          "internalType": "address",
          "name": "operator",
          "type": "address"
        },
        {
          "indexed": true,
          "internalType": "address",
          "name": "from",
          "type": "address"
        },
        {
          "indexed": true,
          "internalType": "address",
          "name": "to",
          "type": "address"
        },
        {
          "indexed": false,
          "internalType": "uint256",
          "name": "id",
          "type": "uint256"
        },
        {
          "indexed": false,
          "internalType": "uint256",
          "name": "value",
          "type": "uint256"
        }
      ],
      "name": "TransferSingle",
      "type": "event"
    },
    {
      "anonymous": false,
      "inputs": [
        {
          "indexed": false,
          "internalType": "string",
          "name": "value",
          "type": "string"
        },
        {
          "indexed": true,
          "internalType": "uint256",
          "name": "id",
          "type": "uint256"
        }
      ],
      "name": "URI",
      "type": "event"
    },
    {
      "inputs": [],
      "name": "ENCHANTER",
      "outputs": [
        {
          "internalType": "uint256",
          "name": "",
          "type": "uint256"
        }
      ],
      "stateMutability": "view",
      "type": "function",
      "constant": true
    },
    {
      "inputs": [],
      "name": "Enchanters_ID_COUNT",
      "outputs": [
        {
          "internalType": "uint256",
          "name": "",
          "type": "uint256"
        }
      ],
      "stateMutability": "view",
      "type": "function",
      "constant": true
    },
    {
      "inputs": [],
      "name": "TUNASS",
      "outputs": [
        {
          "internalType": "uint256",
          "name": "",
          "type": "uint256"
        }
      ],
      "stateMutability": "view",
      "type": "function",
      "constant": true
    },
    {
      "inputs": [
        {
          "internalType": "address",
          "name": "account",
          "type": "address"
        },
        {
          "internalType": "uint256",
          "name": "id",
          "type": "uint256"
        }
      ],
      "name": "balanceOf",
      "outputs": [
        {
          "internalType": "uint256",
          "name": "",
          "type": "uint256"
        }
      ],
      "stateMutability": "view",
      "type": "function",
      "constant": true
    },
    {
      "inputs": [
        {
          "internalType": "address[]",
          "name": "accounts",
          "type": "address[]"
        },
        {
          "internalType": "uint256[]",
          "name": "ids",
          "type": "uint256[]"
        }
      ],
      "name": "balanceOfBatch",
      "outputs": [
        {
          "internalType": "uint256[]",
          "name": "",
          "type": "uint256[]"
        }
      ],
      "stateMutability": "view",
      "type": "function",
      "constant": true
    },
    {
      "inputs": [
        {
          "internalType": "address",
          "name": "account",
          "type": "address"
        },
        {
          "internalType": "address",
          "name": "operator",
          "type": "address"
        }
      ],
      "name": "isApprovedForAll",
      "outputs": [
        {
          "internalType": "bool",
          "name": "",
          "type": "bool"
        }
      ],
      "stateMutability": "view",
      "type": "function",
      "constant": true
    },
    {
      "inputs": [],
      "name": "owner",
      "outputs": [
        {
          "internalType": "address",
          "name": "",
          "type": "address"
        }
      ],
      "stateMutability": "view",
      "type": "function",
      "constant": true
    },
    {
      "inputs": [],
      "name": "renounceOwnership",
      "outputs": [],
      "stateMutability": "nonpayable",
      "type": "function"
    },
    {
      "inputs": [
        {
          "internalType": "address",
          "name": "from",
          "type": "address"
        },
        {
          "internalType": "address",
          "name": "to",
          "type": "address"
        },
        {
          "internalType": "uint256[]",
          "name": "ids",
          "type": "uint256[]"
        },
        {
          "internalType": "uint256[]",
          "name": "amounts",
          "type": "uint256[]"
        },
        {
          "internalType": "bytes",
          "name": "data",
          "type": "bytes"
        }
      ],
      "name": "safeBatchTransferFrom",
      "outputs": [],
      "stateMutability": "nonpayable",
      "type": "function"
    },
    {
      "inputs": [
        {
          "internalType": "address",
          "name": "from",
          "type": "address"
        },
        {
          "internalType": "address",
          "name": "to",
          "type": "address"
        },
        {
          "internalType": "uint256",
          "name": "id",
          "type": "uint256"
        },
        {
          "internalType": "uint256",
          "name": "amount",
          "type": "uint256"
        },
        {
          "internalType": "bytes",
          "name": "data",
          "type": "bytes"
        }
      ],
      "name": "safeTransferFrom",
      "outputs": [],
      "stateMutability": "nonpayable",
      "type": "function"
    },
    {
      "inputs": [
        {
          "internalType": "address",
          "name": "operator",
          "type": "address"
        },
        {
          "internalType": "bool",
          "name": "approved",
          "type": "bool"
        }
      ],
      "name": "setApprovalForAll",
      "outputs": [],
      "stateMutability": "nonpayable",
      "type": "function"
    },
    {
      "inputs": [
        {
          "internalType": "bytes4",
          "name": "interfaceId",
          "type": "bytes4"
        }
      ],
      "name": "supportsInterface",
      "outputs": [
        {
          "internalType": "bool",
          "name": "",
          "type": "bool"
        }
      ],
      "stateMutability": "view",
      "type": "function",
      "constant": true
    },
    {
      "inputs": [
        {
          "internalType": "address",
          "name": "newOwner",
          "type": "address"
        }
      ],
      "name": "transferOwnership",
      "outputs": [],
      "stateMutability": "nonpayable",
      "type": "function"
    },
    {
      "inputs": [
        {
          "internalType": "uint256",
          "name": "",
          "type": "uint256"
        }
      ],
      "name": "uri",
      "outputs": [
        {
          "internalType": "string",
          "name": "",
          "type": "string"
        }
      ],
      "stateMutability": "view",
      "type": "function",
      "constant": true
    },
    {
      "inputs": [
        {
          "internalType": "string",
          "name": "emailParam",
          "type": "string"
        },
        {
          "internalType": "string",
          "name": "denominationParam",
          "type": "string"
        },
        {
          "internalType": "string",
          "name": "chosenDeityParam",
          "type": "string"
        }
      ],
      "name": "Ascension",
      "outputs": [
        {
          "components": [
            {
              "internalType": "address",
              "name": "enchanter_address",
              "type": "address"
            },
            {
              "internalType": "uint256",
              "name": "enchanter_ID",
              "type": "uint256"
            },
            {
              "internalType": "string",
              "name": "enchanter_email",
              "type": "string"
            },
            {
              "internalType": "string",
              "name": "enchanter_denomination",
              "type": "string"
            },
            {
              "internalType": "bool",
              "name": "enchanter_isOnline",
              "type": "bool"
            },
            {
              "internalType": "uint256",
              "name": "enchanter_lvl",
              "type": "uint256"
            },
            {
              "internalType": "string",
              "name": "enchanter_chosenDeity",
              "type": "string"
            }
          ],
          "internalType": "struct Enchant_Zeta.Enchanter",
          "name": "",
          "type": "tuple"
        }
      ],
      "stateMutability": "nonpayable",
      "type": "function"
    },
    {
      "inputs": [
        {
          "internalType": "address",
          "name": "enchanter_address",
          "type": "address"
        }
      ],
      "name": "getEnchanter",
      "outputs": [
        {
          "components": [
            {
              "internalType": "address",
              "name": "enchanter_address",
              "type": "address"
            },
            {
              "internalType": "uint256",
              "name": "enchanter_ID",
              "type": "uint256"
            },
            {
              "internalType": "string",
              "name": "enchanter_email",
              "type": "string"
            },
            {
              "internalType": "string",
              "name": "enchanter_denomination",
              "type": "string"
            },
            {
              "internalType": "bool",
              "name": "enchanter_isOnline",
              "type": "bool"
            },
            {
              "internalType": "uint256",
              "name": "enchanter_lvl",
              "type": "uint256"
            },
            {
              "internalType": "string",
              "name": "enchanter_chosenDeity",
              "type": "string"
            }
          ],
          "internalType": "struct Enchant_Zeta.Enchanter",
          "name": "",
          "type": "tuple"
        }
      ],
      "stateMutability": "view",
      "type": "function",
      "constant": true
    },
    {
      "inputs": [],
      "name": "isMessageSenderAnEnchanter",
      "outputs": [
        {
          "internalType": "bool",
          "name": "",
          "type": "bool"
        }
      ],
      "stateMutability": "view",
      "type": "function",
      "constant": true
    },
    {
      "inputs": [],
      "name": "getEnchant_id",
      "outputs": [
        {
          "internalType": "uint256",
          "name": "",
          "type": "uint256"
        }
      ],
      "stateMutability": "view",
      "type": "function",
      "constant": true
    }
  ],
  "bytecode": "0x60806040523480156200001157600080fd5b506040518060200160405280600081525062000033816200009d60201b60201c565b506200005462000048620000b260201b60201c565b620000ba60201b60201c565b600060048190555062000097620000706200018060201b60201c565b6001670de0b6b3a764000060405180602001604052806000815250620001aa60201b60201c565b62000f98565b8060029081620000ae9190620008b8565b5050565b600033905090565b6000600360009054906101000a900473ffffffffffffffffffffffffffffffffffffffff16905081600360006101000a81548173ffffffffffffffffffffffffffffffffffffffff021916908373ffffffffffffffffffffffffffffffffffffffff1602179055508173ffffffffffffffffffffffffffffffffffffffff168173ffffffffffffffffffffffffffffffffffffffff167f8be0079c531659141344cd1fd0a4f28419497f9722a3daafe3b4186f6b6457e060405160405180910390a35050565b6000600360009054906101000a900473ffffffffffffffffffffffffffffffffffffffff16905090565b600073ffffffffffffffffffffffffffffffffffffffff168473ffffffffffffffffffffffffffffffffffffffff16036200021c576040517f08c379a0000000000000000000000000000000000000000000000000000000008152600401620002139062000a26565b60405180910390fd5b60006200022e620000b260201b60201c565b9050600062000243856200039160201b60201c565b9050600062000258856200039160201b60201c565b905062000271836000898585896200041260201b60201c565b8460008088815260200190815260200160002060008973ffffffffffffffffffffffffffffffffffffffff1673ffffffffffffffffffffffffffffffffffffffff1681526020019081526020016000206000828254620002d2919062000a77565b925050819055508673ffffffffffffffffffffffffffffffffffffffff16600073ffffffffffffffffffffffffffffffffffffffff168473ffffffffffffffffffffffffffffffffffffffff167fc3d58168c5ae7397731d063d5bbf3d657854427343f4c083240f7aacaa2d0f6289896040516200035292919062000ac3565b60405180910390a462000371836000898585896200041a60201b60201c565b62000388836000898989896200042260201b60201c565b50505050505050565b60606000600167ffffffffffffffff811115620003b357620003b262000649565b5b604051908082528060200260200182016040528015620003e25781602001602082028036833780820191505090505b5090508281600081518110620003fd57620003fc62000af0565b5b60200260200101818152505080915050919050565b505050505050565b505050505050565b6200044e8473ffffffffffffffffffffffffffffffffffffffff166200061b60201b620011621760201c565b1562000613578373ffffffffffffffffffffffffffffffffffffffff1663f23a6e6187878686866040518663ffffffff1660e01b81526004016200049795949392919062000bfe565b6020604051808303816000875af1925050508015620004d657506040513d601f19601f82011682018060405250810190620004d3919062000cce565b60015b6200058757620004e562000d0d565b806308c379a003620005485750620004fc62000d68565b806200050957506200054a565b806040517f08c379a00000000000000000000000000000000000000000000000000000000081526004016200053f919062000e44565b60405180910390fd5b505b6040517f08c379a00000000000000000000000000000000000000000000000000000000081526004016200057e9062000ede565b60405180910390fd5b63f23a6e6160e01b7bffffffffffffffffffffffffffffffffffffffffffffffffffffffff1916817bffffffffffffffffffffffffffffffffffffffffffffffffffffffff19161462000611576040517f08c379a0000000000000000000000000000000000000000000000000000000008152600401620006089062000f76565b60405180910390fd5b505b505050505050565b6000808273ffffffffffffffffffffffffffffffffffffffff163b119050919050565b600081519050919050565b7f4e487b7100000000000000000000000000000000000000000000000000000000600052604160045260246000fd5b7f4e487b7100000000000000000000000000000000000000000000000000000000600052602260045260246000fd5b60006002820490506001821680620006c057607f821691505b602082108103620006d657620006d562000678565b5b50919050565b60008190508160005260206000209050919050565b60006020601f8301049050919050565b600082821b905092915050565b600060088302620007407fffffffffffffffffffffffffffffffffffffffffffffffffffffffffffffffff8262000701565b6200074c868362000701565b95508019841693508086168417925050509392505050565b6000819050919050565b6000819050919050565b600062000799620007936200078d8462000764565b6200076e565b62000764565b9050919050565b6000819050919050565b620007b58362000778565b620007cd620007c482620007a0565b8484546200070e565b825550505050565b600090565b620007e4620007d5565b620007f1818484620007aa565b505050565b5b8181101562000819576200080d600082620007da565b600181019050620007f7565b5050565b601f82111562000868576200083281620006dc565b6200083d84620006f1565b810160208510156200084d578190505b620008656200085c85620006f1565b830182620007f6565b50505b505050565b600082821c905092915050565b60006200088d600019846008026200086d565b1980831691505092915050565b6000620008a883836200087a565b9150826002028217905092915050565b620008c3826200063e565b67ffffffffffffffff811115620008df57620008de62000649565b5b620008eb8254620006a7565b620008f88282856200081d565b600060209050601f8311600181146200093057600084156200091b578287015190505b6200092785826200089a565b86555062000997565b601f1984166200094086620006dc565b60005b828110156200096a5784890151825560018201915060208501945060208101905062000943565b868310156200098a578489015162000986601f8916826200087a565b8355505b6001600288020188555050505b505050505050565b600082825260208201905092915050565b7f455243313135353a206d696e7420746f20746865207a65726f2061646472657360008201527f7300000000000000000000000000000000000000000000000000000000000000602082015250565b600062000a0e6021836200099f565b915062000a1b82620009b0565b604082019050919050565b6000602082019050818103600083015262000a4181620009ff565b9050919050565b7f4e487b7100000000000000000000000000000000000000000000000000000000600052601160045260246000fd5b600062000a848262000764565b915062000a918362000764565b925082820190508082111562000aac5762000aab62000a48565b5b92915050565b62000abd8162000764565b82525050565b600060408201905062000ada600083018562000ab2565b62000ae9602083018462000ab2565b9392505050565b7f4e487b7100000000000000000000000000000000000000000000000000000000600052603260045260246000fd5b600073ffffffffffffffffffffffffffffffffffffffff82169050919050565b600062000b4c8262000b1f565b9050919050565b62000b5e8162000b3f565b82525050565b600081519050919050565b600082825260208201905092915050565b60005b8381101562000ba057808201518184015260208101905062000b83565b60008484015250505050565b6000601f19601f8301169050919050565b600062000bca8262000b64565b62000bd6818562000b6f565b935062000be881856020860162000b80565b62000bf38162000bac565b840191505092915050565b600060a08201905062000c15600083018862000b53565b62000c24602083018762000b53565b62000c33604083018662000ab2565b62000c42606083018562000ab2565b818103608083015262000c56818462000bbd565b90509695505050505050565b6000604051905090565b600080fd5b60007fffffffff0000000000000000000000000000000000000000000000000000000082169050919050565b62000ca88162000c71565b811462000cb457600080fd5b50565b60008151905062000cc88162000c9d565b92915050565b60006020828403121562000ce75762000ce662000c6c565b5b600062000cf78482850162000cb7565b91505092915050565b60008160e01c9050919050565b600060033d111562000d2f5760046000803e62000d2c60005162000d00565b90505b90565b62000d3d8262000bac565b810181811067ffffffffffffffff8211171562000d5f5762000d5e62000649565b5b80604052505050565b600060443d1062000e005762000d7d62000c62565b60043d036004823e80513d602482011167ffffffffffffffff8211171562000da757505062000e00565b808201805167ffffffffffffffff81111562000dc7575050505062000e00565b80602083010160043d03850181111562000de657505050505062000e00565b62000df78260200185018662000d32565b82955050505050505b90565b600062000e10826200063e565b62000e1c81856200099f565b935062000e2e81856020860162000b80565b62000e398162000bac565b840191505092915050565b6000602082019050818103600083015262000e60818462000e03565b905092915050565b7f455243313135353a207472616e7366657220746f206e6f6e204552433131353560008201527f526563656976657220696d706c656d656e746572000000000000000000000000602082015250565b600062000ec66034836200099f565b915062000ed38262000e68565b604082019050919050565b6000602082019050818103600083015262000ef98162000eb7565b9050919050565b7f455243313135353a204552433131353552656365697665722072656a6563746560008201527f6420746f6b656e73000000000000000000000000000000000000000000000000602082015250565b600062000f5e6028836200099f565b915062000f6b8262000f00565b604082019050919050565b6000602082019050818103600083015262000f918162000f4f565b9050919050565b6139618062000fa86000396000f3fe608060405234801561001057600080fd5b50600436106101155760003560e01c8063715018a6116100a2578063b3dfe5d711610071578063b3dfe5d7146102f4578063c5ad525a14610312578063e985e9c514610330578063f242432a14610360578063f2fde38b1461037c57610115565b8063715018a6146102925780638da5cb5b1461029c578063a22cb465146102ba578063ac0dbae1146102d657610115565b80632eb2c2d6116100e95780632eb2c2d6146101c857806333127f24146101e45780634e1273f41461020257806350d45e27146102325780635c90892f1461026257610115565b8062fdd58e1461011a57806301ffc9a71461014a5780630e89341c1461017a57806326d0ab53146101aa575b600080fd5b610134600480360381019061012f9190612148565b610398565b6040516101419190612197565b60405180910390f35b610164600480360381019061015f919061220a565b610460565b6040516101719190612252565b60405180910390f35b610194600480360381019061018f919061226d565b610542565b6040516101a1919061232a565b60405180910390f35b6101b26105d6565b6040516101bf9190612197565b60405180910390f35b6101e260048036038101906101dd9190612549565b6105e0565b005b6101ec610681565b6040516101f99190612197565b60405180910390f35b61021c600480360381019061021791906126db565b610686565b6040516102299190612811565b60405180910390f35b61024c600480360381019061024791906128d4565b61079f565b6040516102599190612a8d565b60405180910390f35b61027c60048036038101906102779190612aaf565b610bda565b6040516102899190612a8d565b60405180910390f35b61029a610efe565b005b6102a4610f12565b6040516102b19190612aeb565b60405180910390f35b6102d460048036038101906102cf9190612b32565b610f3c565b005b6102de610f52565b6040516102eb9190612197565b60405180910390f35b6102fc610f57565b6040516103099190612197565b60405180910390f35b61031a610f5d565b6040516103279190612252565b60405180910390f35b61034a60048036038101906103459190612b72565b610faa565b6040516103579190612252565b60405180910390f35b61037a60048036038101906103759190612bb2565b61103e565b005b61039660048036038101906103919190612aaf565b6110df565b005b60008073ffffffffffffffffffffffffffffffffffffffff168373ffffffffffffffffffffffffffffffffffffffff1603610408576040517f08c379a00000000000000000000000000000000000000000000000000000000081526004016103ff90612cbb565b60405180910390fd5b60008083815260200190815260200160002060008473ffffffffffffffffffffffffffffffffffffffff1673ffffffffffffffffffffffffffffffffffffffff16815260200190815260200160002054905092915050565b60007fd9b67a26000000000000000000000000000000000000000000000000000000007bffffffffffffffffffffffffffffffffffffffffffffffffffffffff1916827bffffffffffffffffffffffffffffffffffffffffffffffffffffffff1916148061052b57507f0e89341c000000000000000000000000000000000000000000000000000000007bffffffffffffffffffffffffffffffffffffffffffffffffffffffff1916827bffffffffffffffffffffffffffffffffffffffffffffffffffffffff1916145b8061053b575061053a82611185565b5b9050919050565b60606002805461055190612d0a565b80601f016020809104026020016040519081016040528092919081815260200182805461057d90612d0a565b80156105ca5780601f1061059f576101008083540402835291602001916105ca565b820191906000526020600020905b8154815290600101906020018083116105ad57829003601f168201915b50505050509050919050565b6000600454905090565b6105e86111ef565b73ffffffffffffffffffffffffffffffffffffffff168573ffffffffffffffffffffffffffffffffffffffff16148061062e575061062d856106286111ef565b610faa565b5b61066d576040517f08c379a000000000000000000000000000000000000000000000000000000000815260040161066490612dad565b60405180910390fd5b61067a85858585856111f7565b5050505050565b600081565b606081518351146106cc576040517f08c379a00000000000000000000000000000000000000000000000000000000081526004016106c390612e3f565b60405180910390fd5b6000835167ffffffffffffffff8111156106e9576106e8612351565b5b6040519080825280602002602001820160405280156107175781602001602082028036833780820191505090505b50905060005b84518110156107945761076485828151811061073c5761073b612e5f565b5b602002602001015185838151811061075757610756612e5f565b5b6020026020010151610398565b82828151811061077757610776612e5f565b5b6020026020010181815250508061078d90612ebd565b905061071d565b508091505092915050565b6107a761204b565b6040518060e001604052803373ffffffffffffffffffffffffffffffffffffffff16815260200160045481526020018581526020018481526020016001151581526020016001815260200183815250600560003373ffffffffffffffffffffffffffffffffffffffff1673ffffffffffffffffffffffffffffffffffffffff16815260200190815260200160002060008201518160000160006101000a81548173ffffffffffffffffffffffffffffffffffffffff021916908373ffffffffffffffffffffffffffffffffffffffff16021790555060208201518160010155604082015181600201908161089b91906130b1565b5060608201518160030190816108b191906130b1565b5060808201518160040160006101000a81548160ff02191690831515021790555060a0820151816005015560c08201518160060190816108f191906130b1565b50905050610912336000600160405180602001604052806000815250611518565b60016004546109219190613183565b60048190555061094c610932610f12565b3360016064604051806020016040528060008152506116c8565b600560003373ffffffffffffffffffffffffffffffffffffffff1673ffffffffffffffffffffffffffffffffffffffff1681526020019081526020016000206040518060e00160405290816000820160009054906101000a900473ffffffffffffffffffffffffffffffffffffffff1673ffffffffffffffffffffffffffffffffffffffff1673ffffffffffffffffffffffffffffffffffffffff16815260200160018201548152602001600282018054610a0690612d0a565b80601f0160208091040260200160405190810160405280929190818152602001828054610a3290612d0a565b8015610a7f5780601f10610a5457610100808354040283529160200191610a7f565b820191906000526020600020905b815481529060010190602001808311610a6257829003601f168201915b50505050508152602001600382018054610a9890612d0a565b80601f0160208091040260200160405190810160405280929190818152602001828054610ac490612d0a565b8015610b115780601f10610ae657610100808354040283529160200191610b11565b820191906000526020600020905b815481529060010190602001808311610af457829003601f168201915b505050505081526020016004820160009054906101000a900460ff1615151515815260200160058201548152602001600682018054610b4f90612d0a565b80601f0160208091040260200160405190810160405280929190818152602001828054610b7b90612d0a565b8015610bc85780601f10610b9d57610100808354040283529160200191610bc8565b820191906000526020600020905b815481529060010190602001808311610bab57829003601f168201915b50505050508152505090509392505050565b610be261204b565b610bea610f5d565b15610e7b57600560008373ffffffffffffffffffffffffffffffffffffffff1673ffffffffffffffffffffffffffffffffffffffff1681526020019081526020016000206040518060e00160405290816000820160009054906101000a900473ffffffffffffffffffffffffffffffffffffffff1673ffffffffffffffffffffffffffffffffffffffff1673ffffffffffffffffffffffffffffffffffffffff16815260200160018201548152602001600282018054610ca990612d0a565b80601f0160208091040260200160405190810160405280929190818152602001828054610cd590612d0a565b8015610d225780601f10610cf757610100808354040283529160200191610d22565b820191906000526020600020905b815481529060010190602001808311610d0557829003601f168201915b50505050508152602001600382018054610d3b90612d0a565b80601f0160208091040260200160405190810160405280929190818152602001828054610d6790612d0a565b8015610db45780601f10610d8957610100808354040283529160200191610db4565b820191906000526020600020905b815481529060010190602001808311610d9757829003601f168201915b505050505081526020016004820160009054906101000a900460ff1615151515815260200160058201548152602001600682018054610df290612d0a565b80601f0160208091040260200160405190810160405280929190818152602001828054610e1e90612d0a565b8015610e6b5780601f10610e4057610100808354040283529160200191610e6b565b820191906000526020600020905b815481529060010190602001808311610e4e57829003601f168201915b5050505050815250509050610ef9565b6040518060e001604052803373ffffffffffffffffffffffffffffffffffffffff16815260200160008152602001604051806020016040528060008152508152602001604051806020016040528060008152508152602001600015158152602001600181526020016040518060200160405280600081525081525090505b919050565b610f06611963565b610f1060006119e1565b565b6000600360009054906101000a900473ffffffffffffffffffffffffffffffffffffffff16905090565b610f4e610f476111ef565b8383611aa7565b5050565b600181565b60045481565b600080600560003373ffffffffffffffffffffffffffffffffffffffff1673ffffffffffffffffffffffffffffffffffffffff168152602001908152602001600020600501541415905090565b6000600160008473ffffffffffffffffffffffffffffffffffffffff1673ffffffffffffffffffffffffffffffffffffffff16815260200190815260200160002060008373ffffffffffffffffffffffffffffffffffffffff1673ffffffffffffffffffffffffffffffffffffffff16815260200190815260200160002060009054906101000a900460ff16905092915050565b6110466111ef565b73ffffffffffffffffffffffffffffffffffffffff168573ffffffffffffffffffffffffffffffffffffffff16148061108c575061108b856110866111ef565b610faa565b5b6110cb576040517f08c379a00000000000000000000000000000000000000000000000000000000081526004016110c290612dad565b60405180910390fd5b6110d885858585856116c8565b5050505050565b6110e7611963565b600073ffffffffffffffffffffffffffffffffffffffff168173ffffffffffffffffffffffffffffffffffffffff1603611156576040517f08c379a000000000000000000000000000000000000000000000000000000000815260040161114d90613229565b60405180910390fd5b61115f816119e1565b50565b6000808273ffffffffffffffffffffffffffffffffffffffff163b119050919050565b60007f01ffc9a7000000000000000000000000000000000000000000000000000000007bffffffffffffffffffffffffffffffffffffffffffffffffffffffff1916827bffffffffffffffffffffffffffffffffffffffffffffffffffffffff1916149050919050565b600033905090565b815183511461123b576040517f08c379a0000000000000000000000000000000000000000000000000000000008152600401611232906132bb565b60405180910390fd5b600073ffffffffffffffffffffffffffffffffffffffff168473ffffffffffffffffffffffffffffffffffffffff16036112aa576040517f08c379a00000000000000000000000000000000000000000000000000000000081526004016112a19061334d565b60405180910390fd5b60006112b46111ef565b90506112c4818787878787611c13565b60005b84518110156114755760008582815181106112e5576112e4612e5f565b5b60200260200101519050600085838151811061130457611303612e5f565b5b60200260200101519050600080600084815260200190815260200160002060008b73ffffffffffffffffffffffffffffffffffffffff1673ffffffffffffffffffffffffffffffffffffffff168152602001908152602001600020549050818110156113a5576040517f08c379a000000000000000000000000000000000000000000000000000000000815260040161139c906133df565b60405180910390fd5b81810360008085815260200190815260200160002060008c73ffffffffffffffffffffffffffffffffffffffff1673ffffffffffffffffffffffffffffffffffffffff168152602001908152602001600020819055508160008085815260200190815260200160002060008b73ffffffffffffffffffffffffffffffffffffffff1673ffffffffffffffffffffffffffffffffffffffff168152602001908152602001600020600082825461145a9190613183565b925050819055505050508061146e90612ebd565b90506112c7565b508473ffffffffffffffffffffffffffffffffffffffff168673ffffffffffffffffffffffffffffffffffffffff168273ffffffffffffffffffffffffffffffffffffffff167f4a39dc06d4c0dbc64b70af90fd698a233a518aa5d07e595d983b8c0526c8f7fb87876040516114ec9291906133ff565b60405180910390a4611502818787878787611c1b565b611510818787878787611c23565b505050505050565b600073ffffffffffffffffffffffffffffffffffffffff168473ffffffffffffffffffffffffffffffffffffffff1603611587576040517f08c379a000000000000000000000000000000000000000000000000000000000815260040161157e906134a8565b60405180910390fd5b60006115916111ef565b9050600061159e85611dfa565b905060006115ab85611dfa565b90506115bc83600089858589611c13565b8460008088815260200190815260200160002060008973ffffffffffffffffffffffffffffffffffffffff1673ffffffffffffffffffffffffffffffffffffffff168152602001908152602001600020600082825461161b9190613183565b925050819055508673ffffffffffffffffffffffffffffffffffffffff16600073ffffffffffffffffffffffffffffffffffffffff168473ffffffffffffffffffffffffffffffffffffffff167fc3d58168c5ae7397731d063d5bbf3d657854427343f4c083240f7aacaa2d0f6289896040516116999291906134c8565b60405180910390a46116b083600089858589611c1b565b6116bf83600089898989611e74565b50505050505050565b600073ffffffffffffffffffffffffffffffffffffffff168473ffffffffffffffffffffffffffffffffffffffff1603611737576040517f08c379a000000000000000000000000000000000000000000000000000000000815260040161172e9061334d565b60405180910390fd5b60006117416111ef565b9050600061174e85611dfa565b9050600061175b85611dfa565b905061176b838989858589611c13565b600080600088815260200190815260200160002060008a73ffffffffffffffffffffffffffffffffffffffff1673ffffffffffffffffffffffffffffffffffffffff16815260200190815260200160002054905085811015611802576040517f08c379a00000000000000000000000000000000000000000000000000000000081526004016117f9906133df565b60405180910390fd5b85810360008089815260200190815260200160002060008b73ffffffffffffffffffffffffffffffffffffffff1673ffffffffffffffffffffffffffffffffffffffff168152602001908152602001600020819055508560008089815260200190815260200160002060008a73ffffffffffffffffffffffffffffffffffffffff1673ffffffffffffffffffffffffffffffffffffffff16815260200190815260200160002060008282546118b79190613183565b925050819055508773ffffffffffffffffffffffffffffffffffffffff168973ffffffffffffffffffffffffffffffffffffffff168573ffffffffffffffffffffffffffffffffffffffff167fc3d58168c5ae7397731d063d5bbf3d657854427343f4c083240f7aacaa2d0f628a8a6040516119349291906134c8565b60405180910390a461194a848a8a86868a611c1b565b611958848a8a8a8a8a611e74565b505050505050505050565b61196b6111ef565b73ffffffffffffffffffffffffffffffffffffffff16611989610f12565b73ffffffffffffffffffffffffffffffffffffffff16146119df576040517f08c379a00000000000000000000000000000000000000000000000000000000081526004016119d69061353d565b60405180910390fd5b565b6000600360009054906101000a900473ffffffffffffffffffffffffffffffffffffffff16905081600360006101000a81548173ffffffffffffffffffffffffffffffffffffffff021916908373ffffffffffffffffffffffffffffffffffffffff1602179055508173ffffffffffffffffffffffffffffffffffffffff168173ffffffffffffffffffffffffffffffffffffffff167f8be0079c531659141344cd1fd0a4f28419497f9722a3daafe3b4186f6b6457e060405160405180910390a35050565b8173ffffffffffffffffffffffffffffffffffffffff168373ffffffffffffffffffffffffffffffffffffffff1603611b15576040517f08c379a0000000000000000000000000000000000000000000000000000000008152600401611b0c906135cf565b60405180910390fd5b80600160008573ffffffffffffffffffffffffffffffffffffffff1673ffffffffffffffffffffffffffffffffffffffff16815260200190815260200160002060008473ffffffffffffffffffffffffffffffffffffffff1673ffffffffffffffffffffffffffffffffffffffff16815260200190815260200160002060006101000a81548160ff0219169083151502179055508173ffffffffffffffffffffffffffffffffffffffff168373ffffffffffffffffffffffffffffffffffffffff167f17307eab39ab6107e8899845ad3d59bd9653f200f220920489ca2b5937696c3183604051611c069190612252565b60405180910390a3505050565b505050505050565b505050505050565b611c428473ffffffffffffffffffffffffffffffffffffffff16611162565b15611df2578373ffffffffffffffffffffffffffffffffffffffff1663bc197c8187878686866040518663ffffffff1660e01b8152600401611c88959493929190613644565b6020604051808303816000875af1925050508015611cc457506040513d601f19601f82011682018060405250810190611cc191906136c1565b60015b611d6957611cd06136fb565b806308c379a003611d2c5750611ce461371d565b80611cef5750611d2e565b806040517f08c379a0000000000000000000000000000000000000000000000000000000008152600401611d23919061232a565b60405180910390fd5b505b6040517f08c379a0000000000000000000000000000000000000000000000000000000008152600401611d609061381f565b60405180910390fd5b63bc197c8160e01b7bffffffffffffffffffffffffffffffffffffffffffffffffffffffff1916817bffffffffffffffffffffffffffffffffffffffffffffffffffffffff191614611df0576040517f08c379a0000000000000000000000000000000000000000000000000000000008152600401611de7906138b1565b60405180910390fd5b505b505050505050565b60606000600167ffffffffffffffff811115611e1957611e18612351565b5b604051908082528060200260200182016040528015611e475781602001602082028036833780820191505090505b5090508281600081518110611e5f57611e5e612e5f565b5b60200260200101818152505080915050919050565b611e938473ffffffffffffffffffffffffffffffffffffffff16611162565b15612043578373ffffffffffffffffffffffffffffffffffffffff1663f23a6e6187878686866040518663ffffffff1660e01b8152600401611ed99594939291906138d1565b6020604051808303816000875af1925050508015611f1557506040513d601f19601f82011682018060405250810190611f1291906136c1565b60015b611fba57611f216136fb565b806308c379a003611f7d5750611f3561371d565b80611f405750611f7f565b806040517f08c379a0000000000000000000000000000000000000000000000000000000008152600401611f74919061232a565b60405180910390fd5b505b6040517f08c379a0000000000000000000000000000000000000000000000000000000008152600401611fb19061381f565b60405180910390fd5b63f23a6e6160e01b7bffffffffffffffffffffffffffffffffffffffffffffffffffffffff1916817bffffffffffffffffffffffffffffffffffffffffffffffffffffffff191614612041576040517f08c379a0000000000000000000000000000000000000000000000000000000008152600401612038906138b1565b60405180910390fd5b505b505050505050565b6040518060e00160405280600073ffffffffffffffffffffffffffffffffffffffff16815260200160008152602001606081526020016060815260200160001515815260200160008152602001606081525090565b6000604051905090565b600080fd5b600080fd5b600073ffffffffffffffffffffffffffffffffffffffff82169050919050565b60006120df826120b4565b9050919050565b6120ef816120d4565b81146120fa57600080fd5b50565b60008135905061210c816120e6565b92915050565b6000819050919050565b61212581612112565b811461213057600080fd5b50565b6000813590506121428161211c565b92915050565b6000806040838503121561215f5761215e6120aa565b5b600061216d858286016120fd565b925050602061217e85828601612133565b9150509250929050565b61219181612112565b82525050565b60006020820190506121ac6000830184612188565b92915050565b60007fffffffff0000000000000000000000000000000000000000000000000000000082169050919050565b6121e7816121b2565b81146121f257600080fd5b50565b600081359050612204816121de565b92915050565b6000602082840312156122205761221f6120aa565b5b600061222e848285016121f5565b91505092915050565b60008115159050919050565b61224c81612237565b82525050565b60006020820190506122676000830184612243565b92915050565b600060208284031215612283576122826120aa565b5b600061229184828501612133565b91505092915050565b600081519050919050565b600082825260208201905092915050565b60005b838110156122d45780820151818401526020810190506122b9565b60008484015250505050565b6000601f19601f8301169050919050565b60006122fc8261229a565b61230681856122a5565b93506123168185602086016122b6565b61231f816122e0565b840191505092915050565b6000602082019050818103600083015261234481846122f1565b905092915050565b600080fd5b7f4e487b7100000000000000000000000000000000000000000000000000000000600052604160045260246000fd5b612389826122e0565b810181811067ffffffffffffffff821117156123a8576123a7612351565b5b80604052505050565b60006123bb6120a0565b90506123c78282612380565b919050565b600067ffffffffffffffff8211156123e7576123e6612351565b5b602082029050602081019050919050565b600080fd5b600061241061240b846123cc565b6123b1565b90508083825260208201905060208402830185811115612433576124326123f8565b5b835b8181101561245c57806124488882612133565b845260208401935050602081019050612435565b5050509392505050565b600082601f83011261247b5761247a61234c565b5b813561248b8482602086016123fd565b91505092915050565b600080fd5b600067ffffffffffffffff8211156124b4576124b3612351565b5b6124bd826122e0565b9050602081019050919050565b82818337600083830152505050565b60006124ec6124e784612499565b6123b1565b90508281526020810184848401111561250857612507612494565b5b6125138482856124ca565b509392505050565b600082601f8301126125305761252f61234c565b5b81356125408482602086016124d9565b91505092915050565b600080600080600060a08688031215612565576125646120aa565b5b6000612573888289016120fd565b9550506020612584888289016120fd565b945050604086013567ffffffffffffffff8111156125a5576125a46120af565b5b6125b188828901612466565b935050606086013567ffffffffffffffff8111156125d2576125d16120af565b5b6125de88828901612466565b925050608086013567ffffffffffffffff8111156125ff576125fe6120af565b5b61260b8882890161251b565b9150509295509295909350565b600067ffffffffffffffff82111561263357612632612351565b5b602082029050602081019050919050565b600061265761265284612618565b6123b1565b9050808382526020820190506020840283018581111561267a576126796123f8565b5b835b818110156126a3578061268f88826120fd565b84526020840193505060208101905061267c565b5050509392505050565b600082601f8301126126c2576126c161234c565b5b81356126d2848260208601612644565b91505092915050565b600080604083850312156126f2576126f16120aa565b5b600083013567ffffffffffffffff8111156127105761270f6120af565b5b61271c858286016126ad565b925050602083013567ffffffffffffffff81111561273d5761273c6120af565b5b61274985828601612466565b9150509250929050565b600081519050919050565b600082825260208201905092915050565b6000819050602082019050919050565b61278881612112565b82525050565b600061279a838361277f565b60208301905092915050565b6000602082019050919050565b60006127be82612753565b6127c8818561275e565b93506127d38361276f565b8060005b838110156128045781516127eb888261278e565b97506127f6836127a6565b9250506001810190506127d7565b5085935050505092915050565b6000602082019050818103600083015261282b81846127b3565b905092915050565b600067ffffffffffffffff82111561284e5761284d612351565b5b612857826122e0565b9050602081019050919050565b600061287761287284612833565b6123b1565b90508281526020810184848401111561289357612892612494565b5b61289e8482856124ca565b509392505050565b600082601f8301126128bb576128ba61234c565b5b81356128cb848260208601612864565b91505092915050565b6000806000606084860312156128ed576128ec6120aa565b5b600084013567ffffffffffffffff81111561290b5761290a6120af565b5b612917868287016128a6565b935050602084013567ffffffffffffffff811115612938576129376120af565b5b612944868287016128a6565b925050604084013567ffffffffffffffff811115612965576129646120af565b5b612971868287016128a6565b9150509250925092565b612984816120d4565b82525050565b600082825260208201905092915050565b60006129a68261229a565b6129b0818561298a565b93506129c08185602086016122b6565b6129c9816122e0565b840191505092915050565b6129dd81612237565b82525050565b600060e0830160008301516129fb600086018261297b565b506020830151612a0e602086018261277f565b5060408301518482036040860152612a26828261299b565b91505060608301518482036060860152612a40828261299b565b9150506080830151612a5560808601826129d4565b5060a0830151612a6860a086018261277f565b5060c083015184820360c0860152612a80828261299b565b9150508091505092915050565b60006020820190508181036000830152612aa781846129e3565b905092915050565b600060208284031215612ac557612ac46120aa565b5b6000612ad3848285016120fd565b91505092915050565b612ae5816120d4565b82525050565b6000602082019050612b006000830184612adc565b92915050565b612b0f81612237565b8114612b1a57600080fd5b50565b600081359050612b2c81612b06565b92915050565b60008060408385031215612b4957612b486120aa565b5b6000612b57858286016120fd565b9250506020612b6885828601612b1d565b9150509250929050565b60008060408385031215612b8957612b886120aa565b5b6000612b97858286016120fd565b9250506020612ba8858286016120fd565b9150509250929050565b600080600080600060a08688031215612bce57612bcd6120aa565b5b6000612bdc888289016120fd565b9550506020612bed888289016120fd565b9450506040612bfe88828901612133565b9350506060612c0f88828901612133565b925050608086013567ffffffffffffffff811115612c3057612c2f6120af565b5b612c3c8882890161251b565b9150509295509295909350565b7f455243313135353a2061646472657373207a65726f206973206e6f742061207660008201527f616c6964206f776e657200000000000000000000000000000000000000000000602082015250565b6000612ca5602a836122a5565b9150612cb082612c49565b604082019050919050565b60006020820190508181036000830152612cd481612c98565b9050919050565b7f4e487b7100000000000000000000000000000000000000000000000000000000600052602260045260246000fd5b60006002820490506001821680612d2257607f821691505b602082108103612d3557612d34612cdb565b5b50919050565b7f455243313135353a2063616c6c6572206973206e6f7420746f6b656e206f776e60008201527f6572206e6f7220617070726f7665640000000000000000000000000000000000602082015250565b6000612d97602f836122a5565b9150612da282612d3b565b604082019050919050565b60006020820190508181036000830152612dc681612d8a565b9050919050565b7f455243313135353a206163636f756e747320616e6420696473206c656e67746860008201527f206d69736d617463680000000000000000000000000000000000000000000000602082015250565b6000612e296029836122a5565b9150612e3482612dcd565b604082019050919050565b60006020820190508181036000830152612e5881612e1c565b9050919050565b7f4e487b7100000000000000000000000000000000000000000000000000000000600052603260045260246000fd5b7f4e487b7100000000000000000000000000000000000000000000000000000000600052601160045260246000fd5b6000612ec882612112565b91507fffffffffffffffffffffffffffffffffffffffffffffffffffffffffffffffff8203612efa57612ef9612e8e565b5b600182019050919050565b60008190508160005260206000209050919050565b60006020601f8301049050919050565b600082821b905092915050565b600060088302612f677fffffffffffffffffffffffffffffffffffffffffffffffffffffffffffffffff82612f2a565b612f718683612f2a565b95508019841693508086168417925050509392505050565b6000819050919050565b6000612fae612fa9612fa484612112565b612f89565b612112565b9050919050565b6000819050919050565b612fc883612f93565b612fdc612fd482612fb5565b848454612f37565b825550505050565b600090565b612ff1612fe4565b612ffc818484612fbf565b505050565b5b8181101561302057613015600082612fe9565b600181019050613002565b5050565b601f8211156130655761303681612f05565b61303f84612f1a565b8101602085101561304e578190505b61306261305a85612f1a565b830182613001565b50505b505050565b600082821c905092915050565b60006130886000198460080261306a565b1980831691505092915050565b60006130a18383613077565b9150826002028217905092915050565b6130ba8261229a565b67ffffffffffffffff8111156130d3576130d2612351565b5b6130dd8254612d0a565b6130e8828285613024565b600060209050601f83116001811461311b5760008415613109578287015190505b6131138582613095565b86555061317b565b601f19841661312986612f05565b60005b828110156131515784890151825560018201915060208501945060208101905061312c565b8683101561316e578489015161316a601f891682613077565b8355505b6001600288020188555050505b505050505050565b600061318e82612112565b915061319983612112565b92508282019050808211156131b1576131b0612e8e565b5b92915050565b7f4f776e61626c653a206e6577206f776e657220697320746865207a65726f206160008201527f6464726573730000000000000000000000000000000000000000000000000000602082015250565b60006132136026836122a5565b915061321e826131b7565b604082019050919050565b6000602082019050818103600083015261324281613206565b9050919050565b7f455243313135353a2069647320616e6420616d6f756e7473206c656e6774682060008201527f6d69736d61746368000000000000000000000000000000000000000000000000602082015250565b60006132a56028836122a5565b91506132b082613249565b604082019050919050565b600060208201905081810360008301526132d481613298565b9050919050565b7f455243313135353a207472616e7366657220746f20746865207a65726f20616460008201527f6472657373000000000000000000000000000000000000000000000000000000602082015250565b60006133376025836122a5565b9150613342826132db565b604082019050919050565b600060208201905081810360008301526133668161332a565b9050919050565b7f455243313135353a20696e73756666696369656e742062616c616e636520666f60008201527f72207472616e7366657200000000000000000000000000000000000000000000602082015250565b60006133c9602a836122a5565b91506133d48261336d565b604082019050919050565b600060208201905081810360008301526133f8816133bc565b9050919050565b6000604082019050818103600083015261341981856127b3565b9050818103602083015261342d81846127b3565b90509392505050565b7f455243313135353a206d696e7420746f20746865207a65726f2061646472657360008201527f7300000000000000000000000000000000000000000000000000000000000000602082015250565b60006134926021836122a5565b915061349d82613436565b604082019050919050565b600060208201905081810360008301526134c181613485565b9050919050565b60006040820190506134dd6000830185612188565b6134ea6020830184612188565b9392505050565b7f4f776e61626c653a2063616c6c6572206973206e6f7420746865206f776e6572600082015250565b60006135276020836122a5565b9150613532826134f1565b602082019050919050565b600060208201905081810360008301526135568161351a565b9050919050565b7f455243313135353a2073657474696e6720617070726f76616c2073746174757360008201527f20666f722073656c660000000000000000000000000000000000000000000000602082015250565b60006135b96029836122a5565b91506135c48261355d565b604082019050919050565b600060208201905081810360008301526135e8816135ac565b9050919050565b600081519050919050565b600082825260208201905092915050565b6000613616826135ef565b61362081856135fa565b93506136308185602086016122b6565b613639816122e0565b840191505092915050565b600060a0820190506136596000830188612adc565b6136666020830187612adc565b818103604083015261367881866127b3565b9050818103606083015261368c81856127b3565b905081810360808301526136a0818461360b565b90509695505050505050565b6000815190506136bb816121de565b92915050565b6000602082840312156136d7576136d66120aa565b5b60006136e5848285016136ac565b91505092915050565b60008160e01c9050919050565b600060033d111561371a5760046000803e6137176000516136ee565b90505b90565b600060443d106137aa5761372f6120a0565b60043d036004823e80513d602482011167ffffffffffffffff821117156137575750506137aa565b808201805167ffffffffffffffff81111561377557505050506137aa565b80602083010160043d0385018111156137925750505050506137aa565b6137a182602001850186612380565b82955050505050505b90565b7f455243313135353a207472616e7366657220746f206e6f6e204552433131353560008201527f526563656976657220696d706c656d656e746572000000000000000000000000602082015250565b60006138096034836122a5565b9150613814826137ad565b604082019050919050565b60006020820190508181036000830152613838816137fc565b9050919050565b7f455243313135353a204552433131353552656365697665722072656a6563746560008201527f6420746f6b656e73000000000000000000000000000000000000000000000000602082015250565b600061389b6028836122a5565b91506138a68261383f565b604082019050919050565b600060208201905081810360008301526138ca8161388e565b9050919050565b600060a0820190506138e66000830188612adc565b6138f36020830187612adc565b6139006040830186612188565b61390d6060830185612188565b818103608083015261391f818461360b565b9050969550505050505056fea26469706673582212205000e9dd1f92a5cb762482a9aaa642dcdf177872342fe22d3f6ccbad0af9a14364736f6c63430008110033",
  "immutableReferences": {},
  "source": "// SPDX-License-Identifier: MIT\r\npragma solidity >=0.4.22 <0.9.0;\r\n\r\nimport \"@openzeppelin/contracts/token/ERC1155/ERC1155.sol\";\r\nimport \"@openzeppelin/contracts/access/Ownable.sol\";\r\nimport \"./Spells.sol\";\r\n\r\ncontract Enchant_Zeta is ERC1155, Ownable{\r\n\r\n    uint256 public constant ENCHANTER=0; \r\n    uint256 public constant TUNASS=1; \r\n    uint256 public Enchanters_ID_COUNT;\r\n    mapping (address => Enchanter ) TheArcanicBook;\r\n\r\n    constructor() ERC1155(\"\"){\r\n        Enchanters_ID_COUNT=0;\r\n        _mint(owner(), TUNASS,10**18,\"\");\r\n    }\r\n\r\n    struct Enchanter{\r\n        address enchanter_address;\r\n        uint256 enchanter_ID;\r\n        string  enchanter_email;\r\n        string  enchanter_denomination;\r\n        bool    enchanter_isOnline;\r\n        uint256 enchanter_lvl;\r\n        string  enchanter_chosenDeity;\r\n    }\r\n    \r\n    function Ascension(string memory emailParam,string memory denominationParam,string memory chosenDeityParam)  public returns (Enchanter memory) {\r\n        TheArcanicBook[msg.sender] = Enchanter(msg.sender, Enchanters_ID_COUNT,emailParam,denominationParam,true,1,chosenDeityParam);\r\n        _mint(msg.sender,ENCHANTER,1,\"\");\r\n        Enchanters_ID_COUNT=Enchanters_ID_COUNT+1;\r\n        _safeTransferFrom(owner(),msg.sender,TUNASS,100,\"\");\r\n        return TheArcanicBook[msg.sender];\r\n    }\r\n    function getEnchanter(address enchanter_address)public view returns (Enchanter memory) {\r\n        if(isMessageSenderAnEnchanter()){\r\n            return TheArcanicBook[enchanter_address];\r\n        }else{\r\n            return Enchanter(msg.sender,0,\"\",\"\",false,1,\"\" );\r\n        }\r\n    }\r\n    function isMessageSenderAnEnchanter() public view returns (bool){\r\n        return TheArcanicBook[msg.sender].enchanter_lvl != 0;\r\n    }\r\n    \r\n    function getEnchant_id() public view returns (uint256){\r\n        return Enchanters_ID_COUNT;\r\n    }\r\n\r\n}",
  "sourcePath": "C:\\Users\\Linar\\Documents\\DEVELOPPEMENT WEB\\enchant_zeta_forge\\contracts\\Enchant_Zeta.sol",
  "compiler": {
    "name": "solc",
    "version": "0.8.17+commit.8df45f5f.Emscripten.clang"
  },
  "schemaVersion": "3.4.8",
  "updatedAt": "2022-11-25T15:14:12.066Z",
  "networkType": "ethereum",
  "devdoc": {
    "kind": "dev",
    "methods": {
      "balanceOf(address,uint256)": {
        "details": "See {IERC1155-balanceOf}. Requirements: - `account` cannot be the zero address."
      },
      "balanceOfBatch(address[],uint256[])": {
        "details": "See {IERC1155-balanceOfBatch}. Requirements: - `accounts` and `ids` must have the same length."
      },
      "isApprovedForAll(address,address)": {
        "details": "See {IERC1155-isApprovedForAll}."
      },
      "owner()": {
        "details": "Returns the address of the current owner."
      },
      "renounceOwnership()": {
        "details": "Leaves the contract without owner. It will not be possible to call `onlyOwner` functions anymore. Can only be called by the current owner. NOTE: Renouncing ownership will leave the contract without an owner, thereby removing any functionality that is only available to the owner."
      },
      "safeBatchTransferFrom(address,address,uint256[],uint256[],bytes)": {
        "details": "See {IERC1155-safeBatchTransferFrom}."
      },
      "safeTransferFrom(address,address,uint256,uint256,bytes)": {
        "details": "See {IERC1155-safeTransferFrom}."
      },
      "setApprovalForAll(address,bool)": {
        "details": "See {IERC1155-setApprovalForAll}."
      },
      "supportsInterface(bytes4)": {
        "details": "See {IERC165-supportsInterface}."
      },
      "transferOwnership(address)": {
        "details": "Transfers ownership of the contract to a new account (`newOwner`). Can only be called by the current owner."
      },
      "uri(uint256)": {
        "details": "See {IERC1155MetadataURI-uri}. This implementation returns the same URI for *all* token types. It relies on the token type ID substitution mechanism https://eips.ethereum.org/EIPS/eip-1155#metadata[defined in the EIP]. Clients calling this function must replace the `\\{id\\}` substring with the actual token type ID."
      }
    },
    "version": 1
  },
  "userdoc": {
    "kind": "user",
    "methods": {},
    "version": 1
  }
}