{
  "contractName": "Spells",
  "abi": [
    {
      "inputs": [],
      "stateMutability": "nonpayable",
      "type": "constructor"
    },
    {
      "anonymous": false,
      "inputs": [
        {
          "indexed": true,
          "internalType": "address",
          "name": "owner",
          "type": "address"
        },
        {
          "indexed": true,
          "internalType": "address",
          "name": "approved",
          "type": "address"
        },
        {
          "indexed": true,
          "internalType": "uint256",
          "name": "tokenId",
          "type": "uint256"
        }
      ],
      "name": "Approval",
      "type": "event"
    },
    {
      "anonymous": false,
      "inputs": [
        {
          "indexed": true,
          "internalType": "address",
          "name": "owner",
          "type": "address"
        },
        {
          "indexed": true,
          "internalType": "address",
          "name": "operator",
          "type": "address"
        },
        {
          "indexed": false,
          "internalType": "bool",
          "name": "approved",
          "type": "bool"
        }
      ],
      "name": "ApprovalForAll",
      "type": "event"
    },
    {
      "anonymous": false,
      "inputs": [
        {
          "indexed": true,
          "internalType": "address",
          "name": "previousOwner",
          "type": "address"
        },
        {
          "indexed": true,
          "internalType": "address",
          "name": "newOwner",
          "type": "address"
        }
      ],
      "name": "OwnershipTransferred",
      "type": "event"
    },
    {
      "anonymous": false,
      "inputs": [
        {
          "indexed": true,
          "internalType": "address",
          "name": "from",
          "type": "address"
        },
        {
          "indexed": true,
          "internalType": "address",
          "name": "to",
          "type": "address"
        },
        {
          "indexed": true,
          "internalType": "uint256",
          "name": "tokenId",
          "type": "uint256"
        }
      ],
      "name": "Transfer",
      "type": "event"
    },
    {
      "inputs": [
        {
          "internalType": "uint256",
          "name": "",
          "type": "uint256"
        }
      ],
      "name": "Grimoire",
      "outputs": [
        {
          "internalType": "string",
          "name": "",
          "type": "string"
        }
      ],
      "stateMutability": "view",
      "type": "function",
      "constant": true
    },
    {
      "inputs": [],
      "name": "Spell_ID",
      "outputs": [
        {
          "internalType": "uint256",
          "name": "",
          "type": "uint256"
        }
      ],
      "stateMutability": "view",
      "type": "function",
      "constant": true
    },
    {
      "inputs": [
        {
          "internalType": "address",
          "name": "to",
          "type": "address"
        },
        {
          "internalType": "uint256",
          "name": "tokenId",
          "type": "uint256"
        }
      ],
      "name": "approve",
      "outputs": [],
      "stateMutability": "nonpayable",
      "type": "function"
    },
    {
      "inputs": [
        {
          "internalType": "address",
          "name": "owner",
          "type": "address"
        }
      ],
      "name": "balanceOf",
      "outputs": [
        {
          "internalType": "uint256",
          "name": "",
          "type": "uint256"
        }
      ],
      "stateMutability": "view",
      "type": "function",
      "constant": true
    },
    {
      "inputs": [
        {
          "internalType": "uint256",
          "name": "tokenId",
          "type": "uint256"
        }
      ],
      "name": "getApproved",
      "outputs": [
        {
          "internalType": "address",
          "name": "",
          "type": "address"
        }
      ],
      "stateMutability": "view",
      "type": "function",
      "constant": true
    },
    {
      "inputs": [
        {
          "internalType": "address",
          "name": "owner",
          "type": "address"
        },
        {
          "internalType": "address",
          "name": "operator",
          "type": "address"
        }
      ],
      "name": "isApprovedForAll",
      "outputs": [
        {
          "internalType": "bool",
          "name": "",
          "type": "bool"
        }
      ],
      "stateMutability": "view",
      "type": "function",
      "constant": true
    },
    {
      "inputs": [],
      "name": "name",
      "outputs": [
        {
          "internalType": "string",
          "name": "",
          "type": "string"
        }
      ],
      "stateMutability": "view",
      "type": "function",
      "constant": true
    },
    {
      "inputs": [],
      "name": "owner",
      "outputs": [
        {
          "internalType": "address",
          "name": "",
          "type": "address"
        }
      ],
      "stateMutability": "view",
      "type": "function",
      "constant": true
    },
    {
      "inputs": [
        {
          "internalType": "uint256",
          "name": "tokenId",
          "type": "uint256"
        }
      ],
      "name": "ownerOf",
      "outputs": [
        {
          "internalType": "address",
          "name": "",
          "type": "address"
        }
      ],
      "stateMutability": "view",
      "type": "function",
      "constant": true
    },
    {
      "inputs": [],
      "name": "renounceOwnership",
      "outputs": [],
      "stateMutability": "nonpayable",
      "type": "function"
    },
    {
      "inputs": [
        {
          "internalType": "address",
          "name": "from",
          "type": "address"
        },
        {
          "internalType": "address",
          "name": "to",
          "type": "address"
        },
        {
          "internalType": "uint256",
          "name": "tokenId",
          "type": "uint256"
        }
      ],
      "name": "safeTransferFrom",
      "outputs": [],
      "stateMutability": "nonpayable",
      "type": "function"
    },
    {
      "inputs": [
        {
          "internalType": "address",
          "name": "from",
          "type": "address"
        },
        {
          "internalType": "address",
          "name": "to",
          "type": "address"
        },
        {
          "internalType": "uint256",
          "name": "tokenId",
          "type": "uint256"
        },
        {
          "internalType": "bytes",
          "name": "data",
          "type": "bytes"
        }
      ],
      "name": "safeTransferFrom",
      "outputs": [],
      "stateMutability": "nonpayable",
      "type": "function"
    },
    {
      "inputs": [
        {
          "internalType": "address",
          "name": "operator",
          "type": "address"
        },
        {
          "internalType": "bool",
          "name": "approved",
          "type": "bool"
        }
      ],
      "name": "setApprovalForAll",
      "outputs": [],
      "stateMutability": "nonpayable",
      "type": "function"
    },
    {
      "inputs": [
        {
          "internalType": "bytes4",
          "name": "interfaceId",
          "type": "bytes4"
        }
      ],
      "name": "supportsInterface",
      "outputs": [
        {
          "internalType": "bool",
          "name": "",
          "type": "bool"
        }
      ],
      "stateMutability": "view",
      "type": "function",
      "constant": true
    },
    {
      "inputs": [],
      "name": "symbol",
      "outputs": [
        {
          "internalType": "string",
          "name": "",
          "type": "string"
        }
      ],
      "stateMutability": "view",
      "type": "function",
      "constant": true
    },
    {
      "inputs": [
        {
          "internalType": "address",
          "name": "from",
          "type": "address"
        },
        {
          "internalType": "address",
          "name": "to",
          "type": "address"
        },
        {
          "internalType": "uint256",
          "name": "tokenId",
          "type": "uint256"
        }
      ],
      "name": "transferFrom",
      "outputs": [],
      "stateMutability": "nonpayable",
      "type": "function"
    },
    {
      "inputs": [
        {
          "internalType": "address",
          "name": "newOwner",
          "type": "address"
        }
      ],
      "name": "transferOwnership",
      "outputs": [],
      "stateMutability": "nonpayable",
      "type": "function"
    },
    {
      "inputs": [
        {
          "internalType": "uint256",
          "name": "tokenId",
          "type": "uint256"
        }
      ],
      "name": "tokenURI",
      "outputs": [
        {
          "internalType": "string",
          "name": "",
          "type": "string"
        }
      ],
      "stateMutability": "view",
      "type": "function",
      "constant": true
    },
    {
      "inputs": [
        {
          "internalType": "string",
          "name": "SpellURI",
          "type": "string"
        }
      ],
      "name": "Spellcraft",
      "outputs": [
        {
          "internalType": "uint256",
          "name": "",
          "type": "uint256"
        }
      ],
      "stateMutability": "nonpayable",
      "type": "function"
    },
    {
      "inputs": [],
      "name": "getSpell_ID",
      "outputs": [
        {
          "internalType": "uint256",
          "name": "",
          "type": "uint256"
        }
      ],
      "stateMutability": "view",
      "type": "function",
      "constant": true
    }
  ],
  "bytecode": "0x60806040523480156200001157600080fd5b506040518060400160405280600681526020017f5350454c4c5300000000000000000000000000000000000000000000000000008152506040518060400160405280600381526020017f53504c000000000000000000000000000000000000000000000000000000000081525081600090816200008f91906200041a565b508060019081620000a191906200041a565b505050620000c4620000b8620000d260201b60201c565b620000da60201b60201c565b600060078190555062000501565b600033905090565b6000600660009054906101000a900473ffffffffffffffffffffffffffffffffffffffff16905081600660006101000a81548173ffffffffffffffffffffffffffffffffffffffff021916908373ffffffffffffffffffffffffffffffffffffffff1602179055508173ffffffffffffffffffffffffffffffffffffffff168173ffffffffffffffffffffffffffffffffffffffff167f8be0079c531659141344cd1fd0a4f28419497f9722a3daafe3b4186f6b6457e060405160405180910390a35050565b600081519050919050565b7f4e487b7100000000000000000000000000000000000000000000000000000000600052604160045260246000fd5b7f4e487b7100000000000000000000000000000000000000000000000000000000600052602260045260246000fd5b600060028204905060018216806200022257607f821691505b602082108103620002385762000237620001da565b5b50919050565b60008190508160005260206000209050919050565b60006020601f8301049050919050565b600082821b905092915050565b600060088302620002a27fffffffffffffffffffffffffffffffffffffffffffffffffffffffffffffffff8262000263565b620002ae868362000263565b95508019841693508086168417925050509392505050565b6000819050919050565b6000819050919050565b6000620002fb620002f5620002ef84620002c6565b620002d0565b620002c6565b9050919050565b6000819050919050565b6200031783620002da565b6200032f620003268262000302565b84845462000270565b825550505050565b600090565b6200034662000337565b620003538184846200030c565b505050565b5b818110156200037b576200036f6000826200033c565b60018101905062000359565b5050565b601f821115620003ca5762000394816200023e565b6200039f8462000253565b81016020851015620003af578190505b620003c7620003be8562000253565b83018262000358565b50505b505050565b600082821c905092915050565b6000620003ef60001984600802620003cf565b1980831691505092915050565b60006200040a8383620003dc565b9150826002028217905092915050565b6200042582620001a0565b67ffffffffffffffff811115620004415762000440620001ab565b5b6200044d825462000209565b6200045a8282856200037f565b600060209050601f8311600181146200049257600084156200047d578287015190505b620004898582620003fc565b865550620004f9565b601f198416620004a2866200023e565b60005b82811015620004cc57848901518255600182019150602085019450602081019050620004a5565b86831015620004ec5784890151620004e8601f891682620003dc565b8355505b6001600288020188555050505b505050505050565b612c5680620005116000396000f3fe608060405234801561001057600080fd5b506004361061012c5760003560e01c806370a08231116100ad578063b88d4fde11610071578063b88d4fde14610331578063bbf4ff291461034d578063c87b56dd1461037d578063e985e9c5146103ad578063f2fde38b146103dd5761012c565b806370a082311461029f578063715018a6146102cf5780638da5cb5b146102d957806395d89b41146102f7578063a22cb465146103155761012c565b806323b872dd116100f457806323b872dd146101fb57806342842e0e146102175780635929de1e146102335780636352211e146102515780637066aeeb146102815761012c565b806301ffc9a71461013157806306fdde0314610161578063081812fc1461017f578063095ea7b3146101af5780631a7b3ed7146101cb575b600080fd5b61014b600480360381019061014691906119c0565b6103f9565b6040516101589190611a08565b60405180910390f35b6101696104db565b6040516101769190611ab3565b60405180910390f35b61019960048036038101906101949190611b0b565b61056d565b6040516101a69190611b79565b60405180910390f35b6101c960048036038101906101c49190611bc0565b6105b3565b005b6101e560048036038101906101e09190611b0b565b6106ca565b6040516101f29190611ab3565b60405180910390f35b61021560048036038101906102109190611c00565b61076a565b005b610231600480360381019061022c9190611c00565b6107ca565b005b61023b6107ea565b6040516102489190611c62565b60405180910390f35b61026b60048036038101906102669190611b0b565b6107f4565b6040516102789190611b79565b60405180910390f35b6102896108a5565b6040516102969190611c62565b60405180910390f35b6102b960048036038101906102b49190611c7d565b6108ab565b6040516102c69190611c62565b60405180910390f35b6102d7610962565b005b6102e1610976565b6040516102ee9190611b79565b60405180910390f35b6102ff6109a0565b60405161030c9190611ab3565b60405180910390f35b61032f600480360381019061032a9190611cd6565b610a32565b005b61034b60048036038101906103469190611e4b565b610a48565b005b61036760048036038101906103629190611f6f565b610aaa565b6040516103749190611c62565b60405180910390f35b61039760048036038101906103929190611b0b565b610af4565b6040516103a49190611ab3565b60405180910390f35b6103c760048036038101906103c29190611fb8565b610be1565b6040516103d49190611a08565b60405180910390f35b6103f760048036038101906103f29190611c7d565b610c75565b005b60007f80ac58cd000000000000000000000000000000000000000000000000000000007bffffffffffffffffffffffffffffffffffffffffffffffffffffffff1916827bffffffffffffffffffffffffffffffffffffffffffffffffffffffff191614806104c457507f5b5e139f000000000000000000000000000000000000000000000000000000007bffffffffffffffffffffffffffffffffffffffffffffffffffffffff1916827bffffffffffffffffffffffffffffffffffffffffffffffffffffffff1916145b806104d457506104d382610cf8565b5b9050919050565b6060600080546104ea90612027565b80601f016020809104026020016040519081016040528092919081815260200182805461051690612027565b80156105635780601f1061053857610100808354040283529160200191610563565b820191906000526020600020905b81548152906001019060200180831161054657829003601f168201915b5050505050905090565b600061057882610d62565b6004600083815260200190815260200160002060009054906101000a900473ffffffffffffffffffffffffffffffffffffffff169050919050565b60006105be826107f4565b90508073ffffffffffffffffffffffffffffffffffffffff168373ffffffffffffffffffffffffffffffffffffffff160361062e576040517f08c379a0000000000000000000000000000000000000000000000000000000008152600401610625906120ca565b60405180910390fd5b8073ffffffffffffffffffffffffffffffffffffffff1661064d610dad565b73ffffffffffffffffffffffffffffffffffffffff16148061067c575061067b81610676610dad565b610be1565b5b6106bb576040517f08c379a00000000000000000000000000000000000000000000000000000000081526004016106b29061215c565b60405180910390fd5b6106c58383610db5565b505050565b600860205280600052604060002060009150905080546106e990612027565b80601f016020809104026020016040519081016040528092919081815260200182805461071590612027565b80156107625780601f1061073757610100808354040283529160200191610762565b820191906000526020600020905b81548152906001019060200180831161074557829003601f168201915b505050505081565b61077b610775610dad565b82610e6e565b6107ba576040517f08c379a00000000000000000000000000000000000000000000000000000000081526004016107b1906121ee565b60405180910390fd5b6107c5838383610f03565b505050565b6107e583838360405180602001604052806000815250610a48565b505050565b6000600754905090565b6000806002600084815260200190815260200160002060009054906101000a900473ffffffffffffffffffffffffffffffffffffffff169050600073ffffffffffffffffffffffffffffffffffffffff168173ffffffffffffffffffffffffffffffffffffffff160361089c576040517f08c379a00000000000000000000000000000000000000000000000000000000081526004016108939061225a565b60405180910390fd5b80915050919050565b60075481565b60008073ffffffffffffffffffffffffffffffffffffffff168273ffffffffffffffffffffffffffffffffffffffff160361091b576040517f08c379a0000000000000000000000000000000000000000000000000000000008152600401610912906122ec565b60405180910390fd5b600360008373ffffffffffffffffffffffffffffffffffffffff1673ffffffffffffffffffffffffffffffffffffffff168152602001908152602001600020549050919050565b61096a611169565b61097460006111e7565b565b6000600660009054906101000a900473ffffffffffffffffffffffffffffffffffffffff16905090565b6060600180546109af90612027565b80601f01602080910402602001604051908101604052809291908181526020018280546109db90612027565b8015610a285780601f106109fd57610100808354040283529160200191610a28565b820191906000526020600020905b815481529060010190602001808311610a0b57829003601f168201915b5050505050905090565b610a44610a3d610dad565b83836112ad565b5050565b610a59610a53610dad565b83610e6e565b610a98576040517f08c379a0000000000000000000000000000000000000000000000000000000008152600401610a8f906121ee565b60405180910390fd5b610aa484848484611419565b50505050565b6000806007549050610abc3382611475565b610ac860075484611493565b6001600754610ad7919061233b565b6007819055506001600754610aec919061236f565b915050919050565b6060610aff82611500565b610b3e576040517f08c379a0000000000000000000000000000000000000000000000000000000008152600401610b3590612415565b60405180910390fd5b600860008381526020019081526020016000208054610b5c90612027565b80601f0160208091040260200160405190810160405280929190818152602001828054610b8890612027565b8015610bd55780601f10610baa57610100808354040283529160200191610bd5565b820191906000526020600020905b815481529060010190602001808311610bb857829003601f168201915b50505050509050919050565b6000600560008473ffffffffffffffffffffffffffffffffffffffff1673ffffffffffffffffffffffffffffffffffffffff16815260200190815260200160002060008373ffffffffffffffffffffffffffffffffffffffff1673ffffffffffffffffffffffffffffffffffffffff16815260200190815260200160002060009054906101000a900460ff16905092915050565b610c7d611169565b600073ffffffffffffffffffffffffffffffffffffffff168173ffffffffffffffffffffffffffffffffffffffff1603610cec576040517f08c379a0000000000000000000000000000000000000000000000000000000008152600401610ce3906124a7565b60405180910390fd5b610cf5816111e7565b50565b60007f01ffc9a7000000000000000000000000000000000000000000000000000000007bffffffffffffffffffffffffffffffffffffffffffffffffffffffff1916827bffffffffffffffffffffffffffffffffffffffffffffffffffffffff1916149050919050565b610d6b81611500565b610daa576040517f08c379a0000000000000000000000000000000000000000000000000000000008152600401610da19061225a565b60405180910390fd5b50565b600033905090565b816004600083815260200190815260200160002060006101000a81548173ffffffffffffffffffffffffffffffffffffffff021916908373ffffffffffffffffffffffffffffffffffffffff160217905550808273ffffffffffffffffffffffffffffffffffffffff16610e28836107f4565b73ffffffffffffffffffffffffffffffffffffffff167f8c5be1e5ebec7d5bd14f71427d1e84f3dd0314c0f7b2291e5b200ac8c7c3b92560405160405180910390a45050565b600080610e7a836107f4565b90508073ffffffffffffffffffffffffffffffffffffffff168473ffffffffffffffffffffffffffffffffffffffff161480610ebc5750610ebb8185610be1565b5b80610efa57508373ffffffffffffffffffffffffffffffffffffffff16610ee28461056d565b73ffffffffffffffffffffffffffffffffffffffff16145b91505092915050565b8273ffffffffffffffffffffffffffffffffffffffff16610f23826107f4565b73ffffffffffffffffffffffffffffffffffffffff1614610f79576040517f08c379a0000000000000000000000000000000000000000000000000000000008152600401610f7090612539565b60405180910390fd5b600073ffffffffffffffffffffffffffffffffffffffff168273ffffffffffffffffffffffffffffffffffffffff1603610fe8576040517f08c379a0000000000000000000000000000000000000000000000000000000008152600401610fdf906125cb565b60405180910390fd5b610ff383838361156c565b610ffe600082610db5565b6001600360008573ffffffffffffffffffffffffffffffffffffffff1673ffffffffffffffffffffffffffffffffffffffff168152602001908152602001600020600082825461104e919061236f565b925050819055506001600360008473ffffffffffffffffffffffffffffffffffffffff1673ffffffffffffffffffffffffffffffffffffffff16815260200190815260200160002060008282546110a5919061233b565b92505081905550816002600083815260200190815260200160002060006101000a81548173ffffffffffffffffffffffffffffffffffffffff021916908373ffffffffffffffffffffffffffffffffffffffff160217905550808273ffffffffffffffffffffffffffffffffffffffff168473ffffffffffffffffffffffffffffffffffffffff167fddf252ad1be2c89b69c2b068fc378daa952ba7f163c4a11628f55a4df523b3ef60405160405180910390a4611164838383611571565b505050565b611171610dad565b73ffffffffffffffffffffffffffffffffffffffff1661118f610976565b73ffffffffffffffffffffffffffffffffffffffff16146111e5576040517f08c379a00000000000000000000000000000000000000000000000000000000081526004016111dc90612637565b60405180910390fd5b565b6000600660009054906101000a900473ffffffffffffffffffffffffffffffffffffffff16905081600660006101000a81548173ffffffffffffffffffffffffffffffffffffffff021916908373ffffffffffffffffffffffffffffffffffffffff1602179055508173ffffffffffffffffffffffffffffffffffffffff168173ffffffffffffffffffffffffffffffffffffffff167f8be0079c531659141344cd1fd0a4f28419497f9722a3daafe3b4186f6b6457e060405160405180910390a35050565b8173ffffffffffffffffffffffffffffffffffffffff168373ffffffffffffffffffffffffffffffffffffffff160361131b576040517f08c379a0000000000000000000000000000000000000000000000000000000008152600401611312906126a3565b60405180910390fd5b80600560008573ffffffffffffffffffffffffffffffffffffffff1673ffffffffffffffffffffffffffffffffffffffff16815260200190815260200160002060008473ffffffffffffffffffffffffffffffffffffffff1673ffffffffffffffffffffffffffffffffffffffff16815260200190815260200160002060006101000a81548160ff0219169083151502179055508173ffffffffffffffffffffffffffffffffffffffff168373ffffffffffffffffffffffffffffffffffffffff167f17307eab39ab6107e8899845ad3d59bd9653f200f220920489ca2b5937696c318360405161140c9190611a08565b60405180910390a3505050565b611424848484610f03565b61143084848484611576565b61146f576040517f08c379a000000000000000000000000000000000000000000000000000000000815260040161146690612735565b60405180910390fd5b50505050565b61148f8282604051806020016040528060008152506116fd565b5050565b61149c82611500565b6114db576040517f08c379a00000000000000000000000000000000000000000000000000000000081526004016114d2906127c7565b60405180910390fd5b806008600084815260200190815260200160002090816114fb9190612993565b505050565b60008073ffffffffffffffffffffffffffffffffffffffff166002600084815260200190815260200160002060009054906101000a900473ffffffffffffffffffffffffffffffffffffffff1673ffffffffffffffffffffffffffffffffffffffff1614159050919050565b505050565b505050565b60006115978473ffffffffffffffffffffffffffffffffffffffff16611758565b156116f0578373ffffffffffffffffffffffffffffffffffffffff1663150b7a026115c0610dad565b8786866040518563ffffffff1660e01b81526004016115e29493929190612aba565b6020604051808303816000875af192505050801561161e57506040513d601f19601f8201168201806040525081019061161b9190612b1b565b60015b6116a0573d806000811461164e576040519150601f19603f3d011682016040523d82523d6000602084013e611653565b606091505b506000815103611698576040517f08c379a000000000000000000000000000000000000000000000000000000000815260040161168f90612735565b60405180910390fd5b805181602001fd5b63150b7a0260e01b7bffffffffffffffffffffffffffffffffffffffffffffffffffffffff1916817bffffffffffffffffffffffffffffffffffffffffffffffffffffffff1916149150506116f5565b600190505b949350505050565b611707838361177b565b6117146000848484611576565b611753576040517f08c379a000000000000000000000000000000000000000000000000000000000815260040161174a90612735565b60405180910390fd5b505050565b6000808273ffffffffffffffffffffffffffffffffffffffff163b119050919050565b600073ffffffffffffffffffffffffffffffffffffffff168273ffffffffffffffffffffffffffffffffffffffff16036117ea576040517f08c379a00000000000000000000000000000000000000000000000000000000081526004016117e190612b94565b60405180910390fd5b6117f381611500565b15611833576040517f08c379a000000000000000000000000000000000000000000000000000000000815260040161182a90612c00565b60405180910390fd5b61183f6000838361156c565b6001600360008473ffffffffffffffffffffffffffffffffffffffff1673ffffffffffffffffffffffffffffffffffffffff168152602001908152602001600020600082825461188f919061233b565b92505081905550816002600083815260200190815260200160002060006101000a81548173ffffffffffffffffffffffffffffffffffffffff021916908373ffffffffffffffffffffffffffffffffffffffff160217905550808273ffffffffffffffffffffffffffffffffffffffff16600073ffffffffffffffffffffffffffffffffffffffff167fddf252ad1be2c89b69c2b068fc378daa952ba7f163c4a11628f55a4df523b3ef60405160405180910390a461195060008383611571565b5050565b6000604051905090565b600080fd5b600080fd5b60007fffffffff0000000000000000000000000000000000000000000000000000000082169050919050565b61199d81611968565b81146119a857600080fd5b50565b6000813590506119ba81611994565b92915050565b6000602082840312156119d6576119d561195e565b5b60006119e4848285016119ab565b91505092915050565b60008115159050919050565b611a02816119ed565b82525050565b6000602082019050611a1d60008301846119f9565b92915050565b600081519050919050565b600082825260208201905092915050565b60005b83811015611a5d578082015181840152602081019050611a42565b60008484015250505050565b6000601f19601f8301169050919050565b6000611a8582611a23565b611a8f8185611a2e565b9350611a9f818560208601611a3f565b611aa881611a69565b840191505092915050565b60006020820190508181036000830152611acd8184611a7a565b905092915050565b6000819050919050565b611ae881611ad5565b8114611af357600080fd5b50565b600081359050611b0581611adf565b92915050565b600060208284031215611b2157611b2061195e565b5b6000611b2f84828501611af6565b91505092915050565b600073ffffffffffffffffffffffffffffffffffffffff82169050919050565b6000611b6382611b38565b9050919050565b611b7381611b58565b82525050565b6000602082019050611b8e6000830184611b6a565b92915050565b611b9d81611b58565b8114611ba857600080fd5b50565b600081359050611bba81611b94565b92915050565b60008060408385031215611bd757611bd661195e565b5b6000611be585828601611bab565b9250506020611bf685828601611af6565b9150509250929050565b600080600060608486031215611c1957611c1861195e565b5b6000611c2786828701611bab565b9350506020611c3886828701611bab565b9250506040611c4986828701611af6565b9150509250925092565b611c5c81611ad5565b82525050565b6000602082019050611c776000830184611c53565b92915050565b600060208284031215611c9357611c9261195e565b5b6000611ca184828501611bab565b91505092915050565b611cb3816119ed565b8114611cbe57600080fd5b50565b600081359050611cd081611caa565b92915050565b60008060408385031215611ced57611cec61195e565b5b6000611cfb85828601611bab565b9250506020611d0c85828601611cc1565b9150509250929050565b600080fd5b600080fd5b7f4e487b7100000000000000000000000000000000000000000000000000000000600052604160045260246000fd5b611d5882611a69565b810181811067ffffffffffffffff82111715611d7757611d76611d20565b5b80604052505050565b6000611d8a611954565b9050611d968282611d4f565b919050565b600067ffffffffffffffff821115611db657611db5611d20565b5b611dbf82611a69565b9050602081019050919050565b82818337600083830152505050565b6000611dee611de984611d9b565b611d80565b905082815260208101848484011115611e0a57611e09611d1b565b5b611e15848285611dcc565b509392505050565b600082601f830112611e3257611e31611d16565b5b8135611e42848260208601611ddb565b91505092915050565b60008060008060808587031215611e6557611e6461195e565b5b6000611e7387828801611bab565b9450506020611e8487828801611bab565b9350506040611e9587828801611af6565b925050606085013567ffffffffffffffff811115611eb657611eb5611963565b5b611ec287828801611e1d565b91505092959194509250565b600067ffffffffffffffff821115611ee957611ee8611d20565b5b611ef282611a69565b9050602081019050919050565b6000611f12611f0d84611ece565b611d80565b905082815260208101848484011115611f2e57611f2d611d1b565b5b611f39848285611dcc565b509392505050565b600082601f830112611f5657611f55611d16565b5b8135611f66848260208601611eff565b91505092915050565b600060208284031215611f8557611f8461195e565b5b600082013567ffffffffffffffff811115611fa357611fa2611963565b5b611faf84828501611f41565b91505092915050565b60008060408385031215611fcf57611fce61195e565b5b6000611fdd85828601611bab565b9250506020611fee85828601611bab565b9150509250929050565b7f4e487b7100000000000000000000000000000000000000000000000000000000600052602260045260246000fd5b6000600282049050600182168061203f57607f821691505b60208210810361205257612051611ff8565b5b50919050565b7f4552433732313a20617070726f76616c20746f2063757272656e74206f776e6560008201527f7200000000000000000000000000000000000000000000000000000000000000602082015250565b60006120b4602183611a2e565b91506120bf82612058565b604082019050919050565b600060208201905081810360008301526120e3816120a7565b9050919050565b7f4552433732313a20617070726f76652063616c6c6572206973206e6f7420746f60008201527f6b656e206f776e6572206e6f7220617070726f76656420666f7220616c6c0000602082015250565b6000612146603e83611a2e565b9150612151826120ea565b604082019050919050565b6000602082019050818103600083015261217581612139565b9050919050565b7f4552433732313a2063616c6c6572206973206e6f7420746f6b656e206f776e6560008201527f72206e6f7220617070726f766564000000000000000000000000000000000000602082015250565b60006121d8602e83611a2e565b91506121e38261217c565b604082019050919050565b60006020820190508181036000830152612207816121cb565b9050919050565b7f4552433732313a20696e76616c696420746f6b656e2049440000000000000000600082015250565b6000612244601883611a2e565b915061224f8261220e565b602082019050919050565b6000602082019050818103600083015261227381612237565b9050919050565b7f4552433732313a2061646472657373207a65726f206973206e6f74206120766160008201527f6c6964206f776e65720000000000000000000000000000000000000000000000602082015250565b60006122d6602983611a2e565b91506122e18261227a565b604082019050919050565b60006020820190508181036000830152612305816122c9565b9050919050565b7f4e487b7100000000000000000000000000000000000000000000000000000000600052601160045260246000fd5b600061234682611ad5565b915061235183611ad5565b92508282019050808211156123695761236861230c565b5b92915050565b600061237a82611ad5565b915061238583611ad5565b925082820390508181111561239d5761239c61230c565b5b92915050565b7f4552433732314d657461646174613a2055524920717565727920666f72206e6f60008201527f6e6578697374656e7420746f6b656e0000000000000000000000000000000000602082015250565b60006123ff602f83611a2e565b915061240a826123a3565b604082019050919050565b6000602082019050818103600083015261242e816123f2565b9050919050565b7f4f776e61626c653a206e6577206f776e657220697320746865207a65726f206160008201527f6464726573730000000000000000000000000000000000000000000000000000602082015250565b6000612491602683611a2e565b915061249c82612435565b604082019050919050565b600060208201905081810360008301526124c081612484565b9050919050565b7f4552433732313a207472616e736665722066726f6d20696e636f72726563742060008201527f6f776e6572000000000000000000000000000000000000000000000000000000602082015250565b6000612523602583611a2e565b915061252e826124c7565b604082019050919050565b6000602082019050818103600083015261255281612516565b9050919050565b7f4552433732313a207472616e7366657220746f20746865207a65726f2061646460008201527f7265737300000000000000000000000000000000000000000000000000000000602082015250565b60006125b5602483611a2e565b91506125c082612559565b604082019050919050565b600060208201905081810360008301526125e4816125a8565b9050919050565b7f4f776e61626c653a2063616c6c6572206973206e6f7420746865206f776e6572600082015250565b6000612621602083611a2e565b915061262c826125eb565b602082019050919050565b6000602082019050818103600083015261265081612614565b9050919050565b7f4552433732313a20617070726f766520746f2063616c6c657200000000000000600082015250565b600061268d601983611a2e565b915061269882612657565b602082019050919050565b600060208201905081810360008301526126bc81612680565b9050919050565b7f4552433732313a207472616e7366657220746f206e6f6e20455243373231526560008201527f63656976657220696d706c656d656e7465720000000000000000000000000000602082015250565b600061271f603283611a2e565b915061272a826126c3565b604082019050919050565b6000602082019050818103600083015261274e81612712565b9050919050565b7f4552433732314d657461646174613a2055524920736574206f66206e6f6e657860008201527f697374656e7420746f6b656e0000000000000000000000000000000000000000602082015250565b60006127b1602c83611a2e565b91506127bc82612755565b604082019050919050565b600060208201905081810360008301526127e0816127a4565b9050919050565b60008190508160005260206000209050919050565b60006020601f8301049050919050565b600082821b905092915050565b6000600883026128497fffffffffffffffffffffffffffffffffffffffffffffffffffffffffffffffff8261280c565b612853868361280c565b95508019841693508086168417925050509392505050565b6000819050919050565b600061289061288b61288684611ad5565b61286b565b611ad5565b9050919050565b6000819050919050565b6128aa83612875565b6128be6128b682612897565b848454612819565b825550505050565b600090565b6128d36128c6565b6128de8184846128a1565b505050565b5b81811015612902576128f76000826128cb565b6001810190506128e4565b5050565b601f82111561294757612918816127e7565b612921846127fc565b81016020851015612930578190505b61294461293c856127fc565b8301826128e3565b50505b505050565b600082821c905092915050565b600061296a6000198460080261294c565b1980831691505092915050565b60006129838383612959565b9150826002028217905092915050565b61299c82611a23565b67ffffffffffffffff8111156129b5576129b4611d20565b5b6129bf8254612027565b6129ca828285612906565b600060209050601f8311600181146129fd57600084156129eb578287015190505b6129f58582612977565b865550612a5d565b601f198416612a0b866127e7565b60005b82811015612a3357848901518255600182019150602085019450602081019050612a0e565b86831015612a505784890151612a4c601f891682612959565b8355505b6001600288020188555050505b505050505050565b600081519050919050565b600082825260208201905092915050565b6000612a8c82612a65565b612a968185612a70565b9350612aa6818560208601611a3f565b612aaf81611a69565b840191505092915050565b6000608082019050612acf6000830187611b6a565b612adc6020830186611b6a565b612ae96040830185611c53565b8181036060830152612afb8184612a81565b905095945050505050565b600081519050612b1581611994565b92915050565b600060208284031215612b3157612b3061195e565b5b6000612b3f84828501612b06565b91505092915050565b7f4552433732313a206d696e7420746f20746865207a65726f2061646472657373600082015250565b6000612b7e602083611a2e565b9150612b8982612b48565b602082019050919050565b60006020820190508181036000830152612bad81612b71565b9050919050565b7f4552433732313a20746f6b656e20616c7265616479206d696e74656400000000600082015250565b6000612bea601c83611a2e565b9150612bf582612bb4565b602082019050919050565b60006020820190508181036000830152612c1981612bdd565b905091905056fea26469706673582212200ad40b8b69016b927a7abedc97db974d47749948d92b772e6a5937e211a0326164736f6c63430008110033",
  "immutableReferences": {},
  "source": "// SPDX-License-Identifier: MIT\r\npragma solidity >=0.4.22 <0.9.0;\r\n\r\nimport \"@openzeppelin/contracts/utils/Strings.sol\";\r\nimport \"@openzeppelin/contracts/token/ERC721/ERC721.sol\";\r\nimport \"@openzeppelin/contracts/utils/Counters.sol\";\r\nimport \"@openzeppelin/contracts/access/Ownable.sol\";\r\n\r\ncontract Spells is ERC721 , Ownable {\r\n\r\n\r\n    uint256 public Spell_ID;\r\n    \r\n    // Optional mapping for token URIs\r\n    mapping (uint256 => string) public Grimoire;\r\n\r\n    constructor () ERC721(\"SPELLS\",\"SPL\"){\r\n        Spell_ID = 0;\r\n    }\r\n    //OUR MINT Deal\r\n    function _setTokenURI(uint256 SpellID, string memory SpellURI) internal virtual {\r\n        require(_exists(SpellID), \"ERC721Metadata: URI set of nonexistent token\");\r\n        Grimoire[SpellID] = SpellURI;\r\n    }\r\n\r\n    function tokenURI(uint256 tokenId) public view virtual override returns (string memory) {\r\n        require(_exists(tokenId), \"ERC721Metadata: URI query for nonexistent token\");\r\n        return Grimoire[tokenId];\r\n    }\r\n    function Spellcraft(string memory SpellURI) public returns (uint256) {\r\n        uint256 newSpellID = Spell_ID;\r\n        _safeMint(msg.sender, newSpellID);\r\n        _setTokenURI(Spell_ID, SpellURI);\r\n        Spell_ID = Spell_ID +1;\r\n\r\n        return Spell_ID-1;\r\n    }\r\n\r\n    function getSpell_ID() public view returns (uint256){\r\n        return Spell_ID;\r\n    }\r\n}\r\n",
  "sourcePath": "C:\\Users\\Linar\\Documents\\DEVELOPPEMENT WEB\\enchant_zeta_forge\\contracts\\Spells.sol",
  "compiler": {
    "name": "solc",
    "version": "0.8.17+commit.8df45f5f.Emscripten.clang"
  },
  "schemaVersion": "3.4.8",
  "updatedAt": "2022-11-25T15:14:12.014Z",
  "networkType": "ethereum",
  "devdoc": {
    "kind": "dev",
    "methods": {
      "approve(address,uint256)": {
        "details": "See {IERC721-approve}."
      },
      "balanceOf(address)": {
        "details": "See {IERC721-balanceOf}."
      },
      "getApproved(uint256)": {
        "details": "See {IERC721-getApproved}."
      },
      "isApprovedForAll(address,address)": {
        "details": "See {IERC721-isApprovedForAll}."
      },
      "name()": {
        "details": "See {IERC721Metadata-name}."
      },
      "owner()": {
        "details": "Returns the address of the current owner."
      },
      "ownerOf(uint256)": {
        "details": "See {IERC721-ownerOf}."
      },
      "renounceOwnership()": {
        "details": "Leaves the contract without owner. It will not be possible to call `onlyOwner` functions anymore. Can only be called by the current owner. NOTE: Renouncing ownership will leave the contract without an owner, thereby removing any functionality that is only available to the owner."
      },
      "safeTransferFrom(address,address,uint256)": {
        "details": "See {IERC721-safeTransferFrom}."
      },
      "safeTransferFrom(address,address,uint256,bytes)": {
        "details": "See {IERC721-safeTransferFrom}."
      },
      "setApprovalForAll(address,bool)": {
        "details": "See {IERC721-setApprovalForAll}."
      },
      "supportsInterface(bytes4)": {
        "details": "See {IERC165-supportsInterface}."
      },
      "symbol()": {
        "details": "See {IERC721Metadata-symbol}."
      },
      "tokenURI(uint256)": {
        "details": "See {IERC721Metadata-tokenURI}."
      },
      "transferFrom(address,address,uint256)": {
        "details": "See {IERC721-transferFrom}."
      },
      "transferOwnership(address)": {
        "details": "Transfers ownership of the contract to a new account (`newOwner`). Can only be called by the current owner."
      }
    },
    "version": 1
  },
  "userdoc": {
    "kind": "user",
    "methods": {},
    "version": 1
  }
}